{
  "_format": "hh-sol-artifact-1",
  "contractName": "AplyzaToken",
  "sourceName": "contracts/AplyzaToken.sol",
  "abi": [
    {
      "inputs": [],
      "stateMutability": "nonpayable",
      "type": "constructor"
    },
    {
      "anonymous": false,
      "inputs": [
        {
          "indexed": true,
          "internalType": "address",
          "name": "owner",
          "type": "address"
        },
        {
          "indexed": true,
          "internalType": "address",
          "name": "spender",
          "type": "address"
        },
        {
          "indexed": false,
          "internalType": "uint256",
          "name": "value",
          "type": "uint256"
        }
      ],
      "name": "Approval",
      "type": "event"
    },
    {
      "anonymous": false,
      "inputs": [
        {
          "indexed": true,
          "internalType": "bytes32",
          "name": "role",
          "type": "bytes32"
        },
        {
          "indexed": true,
          "internalType": "bytes32",
          "name": "previousAdminRole",
          "type": "bytes32"
        },
        {
          "indexed": true,
          "internalType": "bytes32",
          "name": "newAdminRole",
          "type": "bytes32"
        }
      ],
      "name": "RoleAdminChanged",
      "type": "event"
    },
    {
      "anonymous": false,
      "inputs": [
        {
          "indexed": true,
          "internalType": "bytes32",
          "name": "role",
          "type": "bytes32"
        },
        {
          "indexed": true,
          "internalType": "address",
          "name": "account",
          "type": "address"
        },
        {
          "indexed": true,
          "internalType": "address",
          "name": "sender",
          "type": "address"
        }
      ],
      "name": "RoleGranted",
      "type": "event"
    },
    {
      "anonymous": false,
      "inputs": [
        {
          "indexed": true,
          "internalType": "bytes32",
          "name": "role",
          "type": "bytes32"
        },
        {
          "indexed": true,
          "internalType": "address",
          "name": "account",
          "type": "address"
        },
        {
          "indexed": true,
          "internalType": "address",
          "name": "sender",
          "type": "address"
        }
      ],
      "name": "RoleRevoked",
      "type": "event"
    },
    {
      "anonymous": false,
      "inputs": [
        {
          "indexed": true,
          "internalType": "address",
          "name": "from",
          "type": "address"
        },
        {
          "indexed": true,
          "internalType": "address",
          "name": "to",
          "type": "address"
        },
        {
          "indexed": false,
          "internalType": "uint256",
          "name": "value",
          "type": "uint256"
        }
      ],
      "name": "Transfer",
      "type": "event"
    },
    {
      "inputs": [],
      "name": "BURNER_ROLE",
      "outputs": [
        {
          "internalType": "bytes32",
          "name": "",
          "type": "bytes32"
        }
      ],
      "stateMutability": "view",
      "type": "function"
    },
    {
      "inputs": [],
      "name": "DEFAULT_ADMIN_ROLE",
      "outputs": [
        {
          "internalType": "bytes32",
          "name": "",
          "type": "bytes32"
        }
      ],
      "stateMutability": "view",
      "type": "function"
    },
    {
      "inputs": [
        {
          "internalType": "address",
          "name": "owner",
          "type": "address"
        },
        {
          "internalType": "address",
          "name": "spender",
          "type": "address"
        }
      ],
      "name": "allowance",
      "outputs": [
        {
          "internalType": "uint256",
          "name": "",
          "type": "uint256"
        }
      ],
      "stateMutability": "view",
      "type": "function"
    },
    {
      "inputs": [
        {
          "internalType": "address",
          "name": "spender",
          "type": "address"
        },
        {
          "internalType": "uint256",
          "name": "amount",
          "type": "uint256"
        }
      ],
      "name": "approve",
      "outputs": [
        {
          "internalType": "bool",
          "name": "",
          "type": "bool"
        }
      ],
      "stateMutability": "nonpayable",
      "type": "function"
    },
    {
      "inputs": [
        {
          "internalType": "address",
          "name": "account",
          "type": "address"
        }
      ],
      "name": "balanceOf",
      "outputs": [
        {
          "internalType": "uint256",
          "name": "",
          "type": "uint256"
        }
      ],
      "stateMutability": "view",
      "type": "function"
    },
    {
      "inputs": [
        {
          "internalType": "uint256",
          "name": "amount",
          "type": "uint256"
        }
      ],
      "name": "burn",
      "outputs": [],
      "stateMutability": "nonpayable",
      "type": "function"
    },
    {
      "inputs": [],
      "name": "decimals",
      "outputs": [
        {
          "internalType": "uint8",
          "name": "",
          "type": "uint8"
        }
      ],
      "stateMutability": "view",
      "type": "function"
    },
    {
      "inputs": [
        {
          "internalType": "address",
          "name": "spender",
          "type": "address"
        },
        {
          "internalType": "uint256",
          "name": "subtractedValue",
          "type": "uint256"
        }
      ],
      "name": "decreaseAllowance",
      "outputs": [
        {
          "internalType": "bool",
          "name": "",
          "type": "bool"
        }
      ],
      "stateMutability": "nonpayable",
      "type": "function"
    },
    {
      "inputs": [
        {
          "internalType": "bytes32",
          "name": "role",
          "type": "bytes32"
        }
      ],
      "name": "getRoleAdmin",
      "outputs": [
        {
          "internalType": "bytes32",
          "name": "",
          "type": "bytes32"
        }
      ],
      "stateMutability": "view",
      "type": "function"
    },
    {
      "inputs": [
        {
          "internalType": "bytes32",
          "name": "role",
          "type": "bytes32"
        },
        {
          "internalType": "address",
          "name": "account",
          "type": "address"
        }
      ],
      "name": "grantRole",
      "outputs": [],
      "stateMutability": "nonpayable",
      "type": "function"
    },
    {
      "inputs": [
        {
          "internalType": "bytes32",
          "name": "role",
          "type": "bytes32"
        },
        {
          "internalType": "address",
          "name": "account",
          "type": "address"
        }
      ],
      "name": "hasRole",
      "outputs": [
        {
          "internalType": "bool",
          "name": "",
          "type": "bool"
        }
      ],
      "stateMutability": "view",
      "type": "function"
    },
    {
      "inputs": [
        {
          "internalType": "address",
          "name": "spender",
          "type": "address"
        },
        {
          "internalType": "uint256",
          "name": "addedValue",
          "type": "uint256"
        }
      ],
      "name": "increaseAllowance",
      "outputs": [
        {
          "internalType": "bool",
          "name": "",
          "type": "bool"
        }
      ],
      "stateMutability": "nonpayable",
      "type": "function"
    },
    {
      "inputs": [],
      "name": "name",
      "outputs": [
        {
          "internalType": "string",
          "name": "",
          "type": "string"
        }
      ],
      "stateMutability": "view",
      "type": "function"
    },
    {
      "inputs": [
        {
          "internalType": "bytes32",
          "name": "role",
          "type": "bytes32"
        },
        {
          "internalType": "address",
          "name": "account",
          "type": "address"
        }
      ],
      "name": "renounceRole",
      "outputs": [],
      "stateMutability": "nonpayable",
      "type": "function"
    },
    {
      "inputs": [
        {
          "internalType": "bytes32",
          "name": "role",
          "type": "bytes32"
        },
        {
          "internalType": "address",
          "name": "account",
          "type": "address"
        }
      ],
      "name": "revokeRole",
      "outputs": [],
      "stateMutability": "nonpayable",
      "type": "function"
    },
    {
      "inputs": [
        {
          "internalType": "bytes4",
          "name": "interfaceId",
          "type": "bytes4"
        }
      ],
      "name": "supportsInterface",
      "outputs": [
        {
          "internalType": "bool",
          "name": "",
          "type": "bool"
        }
      ],
      "stateMutability": "view",
      "type": "function"
    },
    {
      "inputs": [],
      "name": "symbol",
      "outputs": [
        {
          "internalType": "string",
          "name": "",
          "type": "string"
        }
      ],
      "stateMutability": "view",
      "type": "function"
    },
    {
      "inputs": [],
      "name": "totalSupply",
      "outputs": [
        {
          "internalType": "uint256",
          "name": "",
          "type": "uint256"
        }
      ],
      "stateMutability": "view",
      "type": "function"
    },
    {
      "inputs": [
        {
          "internalType": "address",
          "name": "recipient",
          "type": "address"
        },
        {
          "internalType": "uint256",
          "name": "amount",
          "type": "uint256"
        }
      ],
      "name": "transfer",
      "outputs": [
        {
          "internalType": "bool",
          "name": "",
          "type": "bool"
        }
      ],
      "stateMutability": "nonpayable",
      "type": "function"
    },
    {
      "inputs": [
        {
          "internalType": "address",
          "name": "sender",
          "type": "address"
        },
        {
          "internalType": "address",
          "name": "recipient",
          "type": "address"
        },
        {
          "internalType": "uint256",
          "name": "amount",
          "type": "uint256"
        }
      ],
      "name": "transferFrom",
      "outputs": [
        {
          "internalType": "bool",
          "name": "",
          "type": "bool"
        }
      ],
      "stateMutability": "nonpayable",
      "type": "function"
    }
  ],
  "bytecode": "0x60806040523480156200001157600080fd5b506040518060400160405280600c81526020017f41706c797a6120546f6b656e00000000000000000000000000000000000000008152506040518060400160405280600381526020017f41505a000000000000000000000000000000000000000000000000000000000081525081600390805190602001906200009692919062000405565b508060049080519060200190620000af92919062000405565b505050620000e47f9f2df0fed2c77648de5860a4cc508cd0818c85b8b8a1ab4ceeef8d981c8956a6336200010760201b60201c565b62000101336a52b7d2dcc80cd2e40000006200011d60201b60201c565b62000661565b6200011982826200029660201b60201c565b5050565b600073ffffffffffffffffffffffffffffffffffffffff168273ffffffffffffffffffffffffffffffffffffffff16141562000190576040517f08c379a00000000000000000000000000000000000000000000000000000000081526004016200018790620004ed565b60405180910390fd5b620001a4600083836200038860201b60201c565b8060026000828254620001b891906200053d565b92505081905550806000808473ffffffffffffffffffffffffffffffffffffffff1673ffffffffffffffffffffffffffffffffffffffff16815260200190815260200160002060008282546200020f91906200053d565b925050819055508173ffffffffffffffffffffffffffffffffffffffff16600073ffffffffffffffffffffffffffffffffffffffff167fddf252ad1be2c89b69c2b068fc378daa952ba7f163c4a11628f55a4df523b3ef836040516200027691906200050f565b60405180910390a362000292600083836200038d60201b60201c565b5050565b620002a882826200039260201b60201c565b620003845760016005600084815260200190815260200160002060000160008373ffffffffffffffffffffffffffffffffffffffff1673ffffffffffffffffffffffffffffffffffffffff16815260200190815260200160002060006101000a81548160ff02191690831515021790555062000329620003fd60201b60201c565b73ffffffffffffffffffffffffffffffffffffffff168173ffffffffffffffffffffffffffffffffffffffff16837f2f8788117e7eff1d82e926ec794901d17c78024a50270940304540a733656f0d60405160405180910390a45b5050565b505050565b505050565b60006005600084815260200190815260200160002060000160008373ffffffffffffffffffffffffffffffffffffffff1673ffffffffffffffffffffffffffffffffffffffff16815260200190815260200160002060009054906101000a900460ff16905092915050565b600033905090565b8280546200041390620005a4565b90600052602060002090601f01602090048101928262000437576000855562000483565b82601f106200045257805160ff191683800117855562000483565b8280016001018555821562000483579182015b828111156200048257825182559160200191906001019062000465565b5b50905062000492919062000496565b5090565b5b80821115620004b157600081600090555060010162000497565b5090565b6000620004c4601f836200052c565b9150620004d18262000638565b602082019050919050565b620004e7816200059a565b82525050565b600060208201905081810360008301526200050881620004b5565b9050919050565b6000602082019050620005266000830184620004dc565b92915050565b600082825260208201905092915050565b60006200054a826200059a565b915062000557836200059a565b9250827fffffffffffffffffffffffffffffffffffffffffffffffffffffffffffffffff038211156200058f576200058e620005da565b5b828201905092915050565b6000819050919050565b60006002820490506001821680620005bd57607f821691505b60208210811415620005d457620005d362000609565b5b50919050565b7f4e487b7100000000000000000000000000000000000000000000000000000000600052601160045260246000fd5b7f4e487b7100000000000000000000000000000000000000000000000000000000600052602260045260246000fd5b7f45524332303a206d696e7420746f20746865207a65726f206164647265737300600082015250565b6121fd80620006716000396000f3fe608060405234801561001057600080fd5b506004361061012c5760003560e01c806339509351116100ad578063a217fddf11610071578063a217fddf1461036b578063a457c2d714610389578063a9059cbb146103b9578063d547741f146103e9578063dd62ed3e146104055761012c565b806339509351146102a157806342966c68146102d157806370a08231146102ed57806391d148541461031d57806395d89b411461034d5761012c565b8063248a9ca3116100f4578063248a9ca3146101fd578063282c51f31461022d5780632f2ff15d1461024b578063313ce5671461026757806336568abe146102855761012c565b806301ffc9a71461013157806306fdde0314610161578063095ea7b31461017f57806318160ddd146101af57806323b872dd146101cd575b600080fd5b61014b6004803603810190610146919061174b565b610435565b6040516101589190611a21565b60405180910390f35b6101696104af565b6040516101769190611a57565b60405180910390f35b610199600480360381019061019491906116aa565b610541565b6040516101a69190611a21565b60405180910390f35b6101b761055f565b6040516101c49190611bb9565b60405180910390f35b6101e760048036038101906101e2919061165b565b610569565b6040516101f49190611a21565b60405180910390f35b610217600480360381019061021291906116e6565b610661565b6040516102249190611a3c565b60405180910390f35b610235610681565b6040516102429190611a3c565b60405180910390f35b6102656004803603810190610260919061170f565b6106a5565b005b61026f6106ce565b60405161027c9190611bd4565b60405180910390f35b61029f600480360381019061029a919061170f565b6106d7565b005b6102bb60048036038101906102b691906116aa565b61075a565b6040516102c89190611a21565b60405180910390f35b6102eb60048036038101906102e69190611774565b610806565b005b610307600480360381019061030291906115f6565b61087b565b6040516103149190611bb9565b60405180910390f35b6103376004803603810190610332919061170f565b6108c3565b6040516103449190611a21565b60405180910390f35b61035561092e565b6040516103629190611a57565b60405180910390f35b6103736109c0565b6040516103809190611a3c565b60405180910390f35b6103a3600480360381019061039e91906116aa565b6109c7565b6040516103b09190611a21565b60405180910390f35b6103d360048036038101906103ce91906116aa565b610ab2565b6040516103e09190611a21565b60405180910390f35b61040360048036038101906103fe919061170f565b610ad0565b005b61041f600480360381019061041a919061161f565b610af9565b60405161042c9190611bb9565b60405180910390f35b60007f7965db0b000000000000000000000000000000000000000000000000000000007bffffffffffffffffffffffffffffffffffffffffffffffffffffffff1916827bffffffffffffffffffffffffffffffffffffffffffffffffffffffff191614806104a857506104a782610b80565b5b9050919050565b6060600380546104be90611dae565b80601f01602080910402602001604051908101604052809291908181526020018280546104ea90611dae565b80156105375780601f1061050c57610100808354040283529160200191610537565b820191906000526020600020905b81548152906001019060200180831161051a57829003601f168201915b5050505050905090565b600061055561054e610bea565b8484610bf2565b6001905092915050565b6000600254905090565b6000610576848484610dbd565b6000600160008673ffffffffffffffffffffffffffffffffffffffff1673ffffffffffffffffffffffffffffffffffffffff16815260200190815260200160002060006105c1610bea565b73ffffffffffffffffffffffffffffffffffffffff1673ffffffffffffffffffffffffffffffffffffffff16815260200190815260200160002054905082811015610641576040517f08c379a000000000000000000000000000000000000000000000000000000000815260040161063890611b19565b60405180910390fd5b6106558561064d610bea565b858403610bf2565b60019150509392505050565b600060056000838152602001908152602001600020600101549050919050565b7f9f2df0fed2c77648de5860a4cc508cd0818c85b8b8a1ab4ceeef8d981c8956a681565b6106ae82610661565b6106bf816106ba610bea565b61103e565b6106c983836110db565b505050565b60006012905090565b6106df610bea565b73ffffffffffffffffffffffffffffffffffffffff168173ffffffffffffffffffffffffffffffffffffffff161461074c576040517f08c379a000000000000000000000000000000000000000000000000000000000815260040161074390611b99565b60405180910390fd5b61075682826111bc565b5050565b60006107fc610767610bea565b848460016000610775610bea565b73ffffffffffffffffffffffffffffffffffffffff1673ffffffffffffffffffffffffffffffffffffffff16815260200190815260200160002060008873ffffffffffffffffffffffffffffffffffffffff1673ffffffffffffffffffffffffffffffffffffffff168152602001908152602001600020546107f79190611c16565b610bf2565b6001905092915050565b6108307f9f2df0fed2c77648de5860a4cc508cd0818c85b8b8a1ab4ceeef8d981c8956a6336108c3565b61086f576040517f08c379a000000000000000000000000000000000000000000000000000000000815260040161086690611af9565b60405180910390fd5b61087881610806565b50565b60008060008373ffffffffffffffffffffffffffffffffffffffff1673ffffffffffffffffffffffffffffffffffffffff168152602001908152602001600020549050919050565b60006005600084815260200190815260200160002060000160008373ffffffffffffffffffffffffffffffffffffffff1673ffffffffffffffffffffffffffffffffffffffff16815260200190815260200160002060009054906101000a900460ff16905092915050565b60606004805461093d90611dae565b80601f016020809104026020016040519081016040528092919081815260200182805461096990611dae565b80156109b65780601f1061098b576101008083540402835291602001916109b6565b820191906000526020600020905b81548152906001019060200180831161099957829003601f168201915b5050505050905090565b6000801b81565b600080600160006109d6610bea565b73ffffffffffffffffffffffffffffffffffffffff1673ffffffffffffffffffffffffffffffffffffffff16815260200190815260200160002060008573ffffffffffffffffffffffffffffffffffffffff1673ffffffffffffffffffffffffffffffffffffffff16815260200190815260200160002054905082811015610a93576040517f08c379a0000000000000000000000000000000000000000000000000000000008152600401610a8a90611b79565b60405180910390fd5b610aa7610a9e610bea565b85858403610bf2565b600191505092915050565b6000610ac6610abf610bea565b8484610dbd565b6001905092915050565b610ad982610661565b610aea81610ae5610bea565b61103e565b610af483836111bc565b505050565b6000600160008473ffffffffffffffffffffffffffffffffffffffff1673ffffffffffffffffffffffffffffffffffffffff16815260200190815260200160002060008373ffffffffffffffffffffffffffffffffffffffff1673ffffffffffffffffffffffffffffffffffffffff16815260200190815260200160002054905092915050565b60007f01ffc9a7000000000000000000000000000000000000000000000000000000007bffffffffffffffffffffffffffffffffffffffffffffffffffffffff1916827bffffffffffffffffffffffffffffffffffffffffffffffffffffffff1916149050919050565b600033905090565b600073ffffffffffffffffffffffffffffffffffffffff168373ffffffffffffffffffffffffffffffffffffffff161415610c62576040517f08c379a0000000000000000000000000000000000000000000000000000000008152600401610c5990611b59565b60405180910390fd5b600073ffffffffffffffffffffffffffffffffffffffff168273ffffffffffffffffffffffffffffffffffffffff161415610cd2576040517f08c379a0000000000000000000000000000000000000000000000000000000008152600401610cc990611ab9565b60405180910390fd5b80600160008573ffffffffffffffffffffffffffffffffffffffff1673ffffffffffffffffffffffffffffffffffffffff16815260200190815260200160002060008473ffffffffffffffffffffffffffffffffffffffff1673ffffffffffffffffffffffffffffffffffffffff168152602001908152602001600020819055508173ffffffffffffffffffffffffffffffffffffffff168373ffffffffffffffffffffffffffffffffffffffff167f8c5be1e5ebec7d5bd14f71427d1e84f3dd0314c0f7b2291e5b200ac8c7c3b92583604051610db09190611bb9565b60405180910390a3505050565b600073ffffffffffffffffffffffffffffffffffffffff168373ffffffffffffffffffffffffffffffffffffffff161415610e2d576040517f08c379a0000000000000000000000000000000000000000000000000000000008152600401610e2490611b39565b60405180910390fd5b600073ffffffffffffffffffffffffffffffffffffffff168273ffffffffffffffffffffffffffffffffffffffff161415610e9d576040517f08c379a0000000000000000000000000000000000000000000000000000000008152600401610e9490611a99565b60405180910390fd5b610ea883838361129e565b60008060008573ffffffffffffffffffffffffffffffffffffffff1673ffffffffffffffffffffffffffffffffffffffff16815260200190815260200160002054905081811015610f2e576040517f08c379a0000000000000000000000000000000000000000000000000000000008152600401610f2590611ad9565b60405180910390fd5b8181036000808673ffffffffffffffffffffffffffffffffffffffff1673ffffffffffffffffffffffffffffffffffffffff16815260200190815260200160002081905550816000808573ffffffffffffffffffffffffffffffffffffffff1673ffffffffffffffffffffffffffffffffffffffff1681526020019081526020016000206000828254610fc19190611c16565b925050819055508273ffffffffffffffffffffffffffffffffffffffff168473ffffffffffffffffffffffffffffffffffffffff167fddf252ad1be2c89b69c2b068fc378daa952ba7f163c4a11628f55a4df523b3ef846040516110259190611bb9565b60405180910390a36110388484846112a3565b50505050565b61104882826108c3565b6110d75761106d8173ffffffffffffffffffffffffffffffffffffffff1660146112a8565b61107b8360001c60206112a8565b60405160200161108c9291906119e7565b6040516020818303038152906040526040517f08c379a00000000000000000000000000000000000000000000000000000000081526004016110ce9190611a57565b60405180910390fd5b5050565b6110e582826108c3565b6111b85760016005600084815260200190815260200160002060000160008373ffffffffffffffffffffffffffffffffffffffff1673ffffffffffffffffffffffffffffffffffffffff16815260200190815260200160002060006101000a81548160ff02191690831515021790555061115d610bea565b73ffffffffffffffffffffffffffffffffffffffff168173ffffffffffffffffffffffffffffffffffffffff16837f2f8788117e7eff1d82e926ec794901d17c78024a50270940304540a733656f0d60405160405180910390a45b5050565b6111c682826108c3565b1561129a5760006005600084815260200190815260200160002060000160008373ffffffffffffffffffffffffffffffffffffffff1673ffffffffffffffffffffffffffffffffffffffff16815260200190815260200160002060006101000a81548160ff02191690831515021790555061123f610bea565b73ffffffffffffffffffffffffffffffffffffffff168173ffffffffffffffffffffffffffffffffffffffff16837ff6391f5c32d9c69d2a47ea670b442974b53935d1edc7fd64eb21e047a839171b60405160405180910390a45b5050565b505050565b505050565b6060600060028360026112bb9190611c6c565b6112c59190611c16565b67ffffffffffffffff811115611304577f4e487b7100000000000000000000000000000000000000000000000000000000600052604160045260246000fd5b6040519080825280601f01601f1916602001820160405280156113365781602001600182028036833780820191505090505b5090507f300000000000000000000000000000000000000000000000000000000000000081600081518110611394577f4e487b7100000000000000000000000000000000000000000000000000000000600052603260045260246000fd5b60200101907effffffffffffffffffffffffffffffffffffffffffffffffffffffffffffff1916908160001a9053507f78000000000000000000000000000000000000000000000000000000000000008160018151811061141e577f4e487b7100000000000000000000000000000000000000000000000000000000600052603260045260246000fd5b60200101907effffffffffffffffffffffffffffffffffffffffffffffffffffffffffffff1916908160001a9053506000600184600261145e9190611c6c565b6114689190611c16565b90505b6001811115611554577f3031323334353637383961626364656600000000000000000000000000000000600f8616601081106114d0577f4e487b7100000000000000000000000000000000000000000000000000000000600052603260045260246000fd5b1a60f81b82828151811061150d577f4e487b7100000000000000000000000000000000000000000000000000000000600052603260045260246000fd5b60200101907effffffffffffffffffffffffffffffffffffffffffffffffffffffffffffff1916908160001a905350600485901c94508061154d90611d84565b905061146b565b5060008414611598576040517f08c379a000000000000000000000000000000000000000000000000000000000815260040161158f90611a79565b60405180910390fd5b8091505092915050565b6000813590506115b18161216b565b92915050565b6000813590506115c681612182565b92915050565b6000813590506115db81612199565b92915050565b6000813590506115f0816121b0565b92915050565b60006020828403121561160857600080fd5b6000611616848285016115a2565b91505092915050565b6000806040838503121561163257600080fd5b6000611640858286016115a2565b9250506020611651858286016115a2565b9150509250929050565b60008060006060848603121561167057600080fd5b600061167e868287016115a2565b935050602061168f868287016115a2565b92505060406116a0868287016115e1565b9150509250925092565b600080604083850312156116bd57600080fd5b60006116cb858286016115a2565b92505060206116dc858286016115e1565b9150509250929050565b6000602082840312156116f857600080fd5b6000611706848285016115b7565b91505092915050565b6000806040838503121561172257600080fd5b6000611730858286016115b7565b9250506020611741858286016115a2565b9150509250929050565b60006020828403121561175d57600080fd5b600061176b848285016115cc565b91505092915050565b60006020828403121561178657600080fd5b6000611794848285016115e1565b91505092915050565b6117a681611cd8565b82525050565b6117b581611ce4565b82525050565b60006117c682611bef565b6117d08185611bfa565b93506117e0818560208601611d51565b6117e981611e3e565b840191505092915050565b60006117ff82611bef565b6118098185611c0b565b9350611819818560208601611d51565b80840191505092915050565b6000611832602083611bfa565b915061183d82611e4f565b602082019050919050565b6000611855602383611bfa565b915061186082611e78565b604082019050919050565b6000611878602283611bfa565b915061188382611ec7565b604082019050919050565b600061189b602683611bfa565b91506118a682611f16565b604082019050919050565b60006118be601683611bfa565b91506118c982611f65565b602082019050919050565b60006118e1602883611bfa565b91506118ec82611f8e565b604082019050919050565b6000611904602583611bfa565b915061190f82611fdd565b604082019050919050565b6000611927602483611bfa565b91506119328261202c565b604082019050919050565b600061194a601783611c0b565b91506119558261207b565b601782019050919050565b600061196d602583611bfa565b9150611978826120a4565b604082019050919050565b6000611990601183611c0b565b915061199b826120f3565b601182019050919050565b60006119b3602f83611bfa565b91506119be8261211c565b604082019050919050565b6119d281611d3a565b82525050565b6119e181611d44565b82525050565b60006119f28261193d565b91506119fe82856117f4565b9150611a0982611983565b9150611a1582846117f4565b91508190509392505050565b6000602082019050611a36600083018461179d565b92915050565b6000602082019050611a5160008301846117ac565b92915050565b60006020820190508181036000830152611a7181846117bb565b905092915050565b60006020820190508181036000830152611a9281611825565b9050919050565b60006020820190508181036000830152611ab281611848565b9050919050565b60006020820190508181036000830152611ad28161186b565b9050919050565b60006020820190508181036000830152611af28161188e565b9050919050565b60006020820190508181036000830152611b12816118b1565b9050919050565b60006020820190508181036000830152611b32816118d4565b9050919050565b60006020820190508181036000830152611b52816118f7565b9050919050565b60006020820190508181036000830152611b728161191a565b9050919050565b60006020820190508181036000830152611b9281611960565b9050919050565b60006020820190508181036000830152611bb2816119a6565b9050919050565b6000602082019050611bce60008301846119c9565b92915050565b6000602082019050611be960008301846119d8565b92915050565b600081519050919050565b600082825260208201905092915050565b600081905092915050565b6000611c2182611d3a565b9150611c2c83611d3a565b9250827fffffffffffffffffffffffffffffffffffffffffffffffffffffffffffffffff03821115611c6157611c60611de0565b5b828201905092915050565b6000611c7782611d3a565b9150611c8283611d3a565b9250817fffffffffffffffffffffffffffffffffffffffffffffffffffffffffffffffff0483118215151615611cbb57611cba611de0565b5b828202905092915050565b6000611cd182611d1a565b9050919050565b60008115159050919050565b6000819050919050565b60007fffffffff0000000000000000000000000000000000000000000000000000000082169050919050565b600073ffffffffffffffffffffffffffffffffffffffff82169050919050565b6000819050919050565b600060ff82169050919050565b60005b83811015611d6f578082015181840152602081019050611d54565b83811115611d7e576000848401525b50505050565b6000611d8f82611d3a565b91506000821415611da357611da2611de0565b5b600182039050919050565b60006002820490506001821680611dc657607f821691505b60208210811415611dda57611dd9611e0f565b5b50919050565b7f4e487b7100000000000000000000000000000000000000000000000000000000600052601160045260246000fd5b7f4e487b7100000000000000000000000000000000000000000000000000000000600052602260045260246000fd5b6000601f19601f8301169050919050565b7f537472696e67733a20686578206c656e67746820696e73756666696369656e74600082015250565b7f45524332303a207472616e7366657220746f20746865207a65726f206164647260008201527f6573730000000000000000000000000000000000000000000000000000000000602082015250565b7f45524332303a20617070726f766520746f20746865207a65726f20616464726560008201527f7373000000000000000000000000000000000000000000000000000000000000602082015250565b7f45524332303a207472616e7366657220616d6f756e742065786365656473206260008201527f616c616e63650000000000000000000000000000000000000000000000000000602082015250565b7f43616c6c6572206973206e6f742061206d696e74657200000000000000000000600082015250565b7f45524332303a207472616e7366657220616d6f756e742065786365656473206160008201527f6c6c6f77616e6365000000000000000000000000000000000000000000000000602082015250565b7f45524332303a207472616e736665722066726f6d20746865207a65726f20616460008201527f6472657373000000000000000000000000000000000000000000000000000000602082015250565b7f45524332303a20617070726f76652066726f6d20746865207a65726f2061646460008201527f7265737300000000000000000000000000000000000000000000000000000000602082015250565b7f416363657373436f6e74726f6c3a206163636f756e7420000000000000000000600082015250565b7f45524332303a2064656372656173656420616c6c6f77616e63652062656c6f7760008201527f207a65726f000000000000000000000000000000000000000000000000000000602082015250565b7f206973206d697373696e6720726f6c6520000000000000000000000000000000600082015250565b7f416363657373436f6e74726f6c3a2063616e206f6e6c792072656e6f756e636560008201527f20726f6c657320666f722073656c660000000000000000000000000000000000602082015250565b61217481611cc6565b811461217f57600080fd5b50565b61218b81611ce4565b811461219657600080fd5b50565b6121a281611cee565b81146121ad57600080fd5b50565b6121b981611d3a565b81146121c457600080fd5b5056fea264697066735822122063b073bd6e81fc5deedb6c02feddd8756b421123e4f7f0babcbc212067ec793264736f6c63430008030033",
  "linkReferences": {},
  "deployedLinkReferences": {}
}