{
  "_format": "hh-sol-artifact-1",
  "contractName": "Aplybot",
  "sourceName": "contracts/Aplybot.sol",
  "abi": [
    {
      "inputs": [
        {
          "internalType": "address",
          "name": "_VRFCoordinator",
          "type": "address"
        },
        {
          "internalType": "address",
          "name": "_LinkToken",
          "type": "address"
        },
        {
          "internalType": "bytes32",
          "name": "_keyhash",
          "type": "bytes32"
        }
      ],
      "stateMutability": "nonpayable",
      "type": "constructor"
    },
    {
      "anonymous": false,
      "inputs": [
        {
          "indexed": true,
          "internalType": "address",
          "name": "owner",
          "type": "address"
        },
        {
          "indexed": true,
          "internalType": "address",
          "name": "approved",
          "type": "address"
        },
        {
          "indexed": true,
          "internalType": "uint256",
          "name": "tokenId",
          "type": "uint256"
        }
      ],
      "name": "Approval",
      "type": "event"
    },
    {
      "anonymous": false,
      "inputs": [
        {
          "indexed": true,
          "internalType": "address",
          "name": "owner",
          "type": "address"
        },
        {
          "indexed": true,
          "internalType": "address",
          "name": "operator",
          "type": "address"
        },
        {
          "indexed": false,
          "internalType": "bool",
          "name": "approved",
          "type": "bool"
        }
      ],
      "name": "ApprovalForAll",
      "type": "event"
    },
    {
      "anonymous": false,
      "inputs": [
        {
          "indexed": true,
          "internalType": "address",
          "name": "previousOwner",
          "type": "address"
        },
        {
          "indexed": true,
          "internalType": "address",
          "name": "newOwner",
          "type": "address"
        }
      ],
      "name": "OwnershipTransferred",
      "type": "event"
    },
    {
      "anonymous": false,
      "inputs": [
        {
          "indexed": true,
          "internalType": "address",
          "name": "from",
          "type": "address"
        },
        {
          "indexed": true,
          "internalType": "address",
          "name": "to",
          "type": "address"
        },
        {
          "indexed": true,
          "internalType": "uint256",
          "name": "tokenId",
          "type": "uint256"
        }
      ],
      "name": "Transfer",
      "type": "event"
    },
    {
      "inputs": [],
      "name": "LinkToken",
      "outputs": [
        {
          "internalType": "address",
          "name": "",
          "type": "address"
        }
      ],
      "stateMutability": "view",
      "type": "function"
    },
    {
      "inputs": [],
      "name": "VRFCoordinator",
      "outputs": [
        {
          "internalType": "address",
          "name": "",
          "type": "address"
        }
      ],
      "stateMutability": "view",
      "type": "function"
    },
    {
      "inputs": [
        {
          "internalType": "address",
          "name": "to",
          "type": "address"
        },
        {
          "internalType": "uint256",
          "name": "tokenId",
          "type": "uint256"
        }
      ],
      "name": "approve",
      "outputs": [],
      "stateMutability": "nonpayable",
      "type": "function"
    },
    {
      "inputs": [
        {
          "internalType": "address",
          "name": "owner",
          "type": "address"
        }
      ],
      "name": "balanceOf",
      "outputs": [
        {
          "internalType": "uint256",
          "name": "",
          "type": "uint256"
        }
      ],
      "stateMutability": "view",
      "type": "function"
    },
    {
      "inputs": [
        {
          "internalType": "uint256",
          "name": "",
          "type": "uint256"
        }
      ],
      "name": "characters",
      "outputs": [
        {
          "internalType": "uint256",
          "name": "strength",
          "type": "uint256"
        },
        {
          "internalType": "uint256",
          "name": "speed",
          "type": "uint256"
        },
        {
          "internalType": "uint256",
          "name": "agility",
          "type": "uint256"
        },
        {
          "internalType": "uint256",
          "name": "intelligence",
          "type": "uint256"
        },
        {
          "internalType": "uint256",
          "name": "defendse",
          "type": "uint256"
        },
        {
          "internalType": "uint256",
          "name": "experience",
          "type": "uint256"
        },
        {
          "internalType": "string",
          "name": "name",
          "type": "string"
        }
      ],
      "stateMutability": "view",
      "type": "function"
    },
    {
      "inputs": [
        {
          "internalType": "uint256",
          "name": "tokenId",
          "type": "uint256"
        }
      ],
      "name": "getApproved",
      "outputs": [
        {
          "internalType": "address",
          "name": "",
          "type": "address"
        }
      ],
      "stateMutability": "view",
      "type": "function"
    },
    {
      "inputs": [
        {
          "internalType": "uint256",
          "name": "tokenId",
          "type": "uint256"
        }
      ],
      "name": "getCharacterStats",
      "outputs": [
        {
          "internalType": "uint256",
          "name": "",
          "type": "uint256"
        },
        {
          "internalType": "uint256",
          "name": "",
          "type": "uint256"
        },
        {
          "internalType": "uint256",
          "name": "",
          "type": "uint256"
        },
        {
          "internalType": "uint256",
          "name": "",
          "type": "uint256"
        },
        {
          "internalType": "uint256",
          "name": "",
          "type": "uint256"
        },
        {
          "internalType": "uint256",
          "name": "",
          "type": "uint256"
        }
      ],
      "stateMutability": "view",
      "type": "function"
    },
    {
      "inputs": [
        {
          "internalType": "uint256",
          "name": "tokenId",
          "type": "uint256"
        }
      ],
      "name": "getLevel",
      "outputs": [
        {
          "internalType": "uint256",
          "name": "",
          "type": "uint256"
        }
      ],
      "stateMutability": "view",
      "type": "function"
    },
    {
      "inputs": [],
      "name": "getNumberOfCharacters",
      "outputs": [
        {
          "internalType": "uint256",
          "name": "",
          "type": "uint256"
        }
      ],
      "stateMutability": "view",
      "type": "function"
    },
    {
      "inputs": [
        {
          "internalType": "uint256",
          "name": "tokenId",
          "type": "uint256"
        }
      ],
      "name": "getTokenURI",
      "outputs": [
        {
          "internalType": "string",
          "name": "",
          "type": "string"
        }
      ],
      "stateMutability": "view",
      "type": "function"
    },
    {
      "inputs": [
        {
          "internalType": "address",
          "name": "owner",
          "type": "address"
        },
        {
          "internalType": "address",
          "name": "operator",
          "type": "address"
        }
      ],
      "name": "isApprovedForAll",
      "outputs": [
        {
          "internalType": "bool",
          "name": "",
          "type": "bool"
        }
      ],
      "stateMutability": "view",
      "type": "function"
    },
    {
      "inputs": [],
      "name": "name",
      "outputs": [
        {
          "internalType": "string",
          "name": "",
          "type": "string"
        }
      ],
      "stateMutability": "view",
      "type": "function"
    },
    {
      "inputs": [],
      "name": "owner",
      "outputs": [
        {
          "internalType": "address",
          "name": "",
          "type": "address"
        }
      ],
      "stateMutability": "view",
      "type": "function"
    },
    {
      "inputs": [
        {
          "internalType": "uint256",
          "name": "tokenId",
          "type": "uint256"
        }
      ],
      "name": "ownerOf",
      "outputs": [
        {
          "internalType": "address",
          "name": "",
          "type": "address"
        }
      ],
      "stateMutability": "view",
      "type": "function"
    },
    {
      "inputs": [],
      "name": "randomResult",
      "outputs": [
        {
          "internalType": "uint256",
          "name": "",
          "type": "uint256"
        }
      ],
      "stateMutability": "view",
      "type": "function"
    },
    {
      "inputs": [
        {
          "internalType": "bytes32",
          "name": "requestId",
          "type": "bytes32"
        },
        {
          "internalType": "uint256",
          "name": "randomness",
          "type": "uint256"
        }
      ],
      "name": "rawFulfillRandomness",
      "outputs": [],
      "stateMutability": "nonpayable",
      "type": "function"
    },
    {
      "inputs": [],
      "name": "renounceOwnership",
      "outputs": [],
      "stateMutability": "nonpayable",
      "type": "function"
    },
    {
      "inputs": [
        {
          "internalType": "string",
          "name": "name",
          "type": "string"
        },
        {
          "internalType": "string",
          "name": "uri",
          "type": "string"
        }
      ],
      "name": "requestNewRandomCharacter",
      "outputs": [
        {
          "internalType": "bytes32",
          "name": "",
          "type": "bytes32"
        }
      ],
      "stateMutability": "payable",
      "type": "function"
    },
    {
      "inputs": [
        {
          "internalType": "address",
          "name": "from",
          "type": "address"
        },
        {
          "internalType": "address",
          "name": "to",
          "type": "address"
        },
        {
          "internalType": "uint256",
          "name": "tokenId",
          "type": "uint256"
        }
      ],
      "name": "safeTransferFrom",
      "outputs": [],
      "stateMutability": "nonpayable",
      "type": "function"
    },
    {
      "inputs": [
        {
          "internalType": "address",
          "name": "from",
          "type": "address"
        },
        {
          "internalType": "address",
          "name": "to",
          "type": "address"
        },
        {
          "internalType": "uint256",
          "name": "tokenId",
          "type": "uint256"
        },
        {
          "internalType": "bytes",
          "name": "_data",
          "type": "bytes"
        }
      ],
      "name": "safeTransferFrom",
      "outputs": [],
      "stateMutability": "nonpayable",
      "type": "function"
    },
    {
      "inputs": [
        {
          "internalType": "address",
          "name": "operator",
          "type": "address"
        },
        {
          "internalType": "bool",
          "name": "approved",
          "type": "bool"
        }
      ],
      "name": "setApprovalForAll",
      "outputs": [],
      "stateMutability": "nonpayable",
      "type": "function"
    },
    {
      "inputs": [
        {
          "internalType": "bytes4",
          "name": "interfaceId",
          "type": "bytes4"
        }
      ],
      "name": "supportsInterface",
      "outputs": [
        {
          "internalType": "bool",
          "name": "",
          "type": "bool"
        }
      ],
      "stateMutability": "view",
      "type": "function"
    },
    {
      "inputs": [],
      "name": "symbol",
      "outputs": [
        {
          "internalType": "string",
          "name": "",
          "type": "string"
        }
      ],
      "stateMutability": "view",
      "type": "function"
    },
    {
      "inputs": [
        {
          "internalType": "uint256",
          "name": "tokenId",
          "type": "uint256"
        }
      ],
      "name": "tokenURI",
      "outputs": [
        {
          "internalType": "string",
          "name": "",
          "type": "string"
        }
      ],
      "stateMutability": "view",
      "type": "function"
    },
    {
      "inputs": [
        {
          "internalType": "address",
          "name": "from",
          "type": "address"
        },
        {
          "internalType": "address",
          "name": "to",
          "type": "address"
        },
        {
          "internalType": "uint256",
          "name": "tokenId",
          "type": "uint256"
        }
      ],
      "name": "transferFrom",
      "outputs": [],
      "stateMutability": "nonpayable",
      "type": "function"
    },
    {
      "inputs": [
        {
          "internalType": "address",
          "name": "newOwner",
          "type": "address"
        }
      ],
      "name": "transferOwnership",
      "outputs": [],
      "stateMutability": "nonpayable",
      "type": "function"
    }
  ],
  "bytecode": "0x60c060405273caac892428982b4837b0e84898d8a69887978bb7600960006101000a81548173ffffffffffffffffffffffffffffffffffffffff021916908373ffffffffffffffffffffffffffffffffffffffff1602179055503480156200006657600080fd5b506040516200484a3803806200484a83398181016040528101906200008c91906200040b565b82826040518060400160405280600981526020017f41706c797a61626f7400000000000000000000000000000000000000000000008152506040518060400160405280600481526020017f41505a42000000000000000000000000000000000000000000000000000000008152508160009080519060200190620001129291906200032d565b5080600190805190602001906200012b9291906200032d565b5050506200014e620001426200025f60201b60201c565b6200026760201b60201c565b8173ffffffffffffffffffffffffffffffffffffffff1660a08173ffffffffffffffffffffffffffffffffffffffff1660601b815250508073ffffffffffffffffffffffffffffffffffffffff1660808173ffffffffffffffffffffffffffffffffffffffff1660601b81525050505082600d60006101000a81548173ffffffffffffffffffffffffffffffffffffffff021916908373ffffffffffffffffffffffffffffffffffffffff16021790555081600e60006101000a81548173ffffffffffffffffffffffffffffffffffffffff021916908373ffffffffffffffffffffffffffffffffffffffff16021790555080600a8190555067016345785d8a0000600b8190555050505062000538565b600033905090565b6000600760009054906101000a900473ffffffffffffffffffffffffffffffffffffffff16905081600760006101000a81548173ffffffffffffffffffffffffffffffffffffffff021916908373ffffffffffffffffffffffffffffffffffffffff1602179055508173ffffffffffffffffffffffffffffffffffffffff168173ffffffffffffffffffffffffffffffffffffffff167f8be0079c531659141344cd1fd0a4f28419497f9722a3daafe3b4186f6b6457e060405160405180910390a35050565b8280546200033b906200049f565b90600052602060002090601f0160209004810192826200035f5760008555620003ab565b82601f106200037a57805160ff1916838001178555620003ab565b82800160010185558215620003ab579182015b82811115620003aa5782518255916020019190600101906200038d565b5b509050620003ba9190620003be565b5090565b5b80821115620003d9576000816000905550600101620003bf565b5090565b600081519050620003ee8162000504565b92915050565b60008151905062000405816200051e565b92915050565b6000806000606084860312156200042157600080fd5b60006200043186828701620003dd565b93505060206200044486828701620003dd565b92505060406200045786828701620003f4565b9150509250925092565b60006200046e826200047f565b9050919050565b6000819050919050565b600073ffffffffffffffffffffffffffffffffffffffff82169050919050565b60006002820490506001821680620004b857607f821691505b60208210811415620004cf57620004ce620004d5565b5b50919050565b7f4e487b7100000000000000000000000000000000000000000000000000000000600052602260045260246000fd5b6200050f8162000461565b81146200051b57600080fd5b50565b620005298162000475565b81146200053557600080fd5b50565b60805160601c60a05160601c6142d86200057260003960008181610fc3015261227d01526000818161150a015261224101526142d86000f3fe6080604052600436106101815760003560e01c80636fe0c046116100d157806395d89b411161008a578063c87b56dd11610064578063c87b56dd146105b3578063e985e9c5146105f0578063f095ab251461062d578063f2fde38b1461065d57610181565b806395d89b4114610536578063a22cb46514610561578063b88d4fde1461058a57610181565b80636fe0c0461461040f57806370a0823114610451578063715018a61461048e57806386481d40146104a55780638da5cb5b146104e257806394985ddd1461050d57610181565b80633bb3a24d1161013e5780634810bc59116101185780634810bc59146103395780634f8e2fdf1461037c57806362d36dec146103a75780636352211e146103d257610181565b80633bb3a24d146102a857806342619f66146102e557806342842e0e1461031057610181565b806301ffc9a71461018657806306fdde03146101c3578063081812fc146101ee578063095ea7b31461022b57806323b872dd1461025457806333b608631461027d575b600080fd5b34801561019257600080fd5b506101ad60048036038101906101a89190612e4c565b610686565b6040516101ba919061343d565b60405180910390f35b3480156101cf57600080fd5b506101d8610768565b6040516101e591906134e1565b60405180910390f35b3480156101fa57600080fd5b5061021560048036038101906102109190612f0a565b6107fa565b6040516102229190613398565b60405180910390f35b34801561023757600080fd5b50610252600480360381019061024d9190612dab565b61087f565b005b34801561026057600080fd5b5061027b60048036038101906102769190612ca5565b610997565b005b34801561028957600080fd5b506102926109f7565b60405161029f9190613398565b60405180910390f35b3480156102b457600080fd5b506102cf60048036038101906102ca9190612f0a565b610a1d565b6040516102dc91906134e1565b60405180910390f35b3480156102f157600080fd5b506102fa610a2f565b60405161030791906137a3565b60405180910390f35b34801561031c57600080fd5b5061033760048036038101906103329190612ca5565b610a35565b005b34801561034557600080fd5b50610360600480360381019061035b9190612f0a565b610a55565b604051610373979695949392919061381f565b60405180910390f35b34801561038857600080fd5b50610391610b2f565b60405161039e9190613398565b60405180910390f35b3480156103b357600080fd5b506103bc610b55565b6040516103c991906137a3565b60405180910390f35b3480156103de57600080fd5b506103f960048036038101906103f49190612f0a565b610b62565b6040516104069190613398565b60405180910390f35b34801561041b57600080fd5b5061043660048036038101906104319190612f0a565b610c14565b604051610448969594939291906137be565b60405180910390f35b34801561045d57600080fd5b5061047860048036038101906104739190612c40565b610dfa565b60405161048591906137a3565b60405180910390f35b34801561049a57600080fd5b506104a3610eb2565b005b3480156104b157600080fd5b506104cc60048036038101906104c79190612f0a565b610f3a565b6040516104d991906137a3565b60405180910390f35b3480156104ee57600080fd5b506104f7610f97565b6040516105049190613398565b60405180910390f35b34801561051957600080fd5b50610534600480360381019061052f9190612e10565b610fc1565b005b34801561054257600080fd5b5061054b61105d565b60405161055891906134e1565b60405180910390f35b34801561056d57600080fd5b5061058860048036038101906105839190612d6f565b6110ef565b005b34801561059657600080fd5b506105b160048036038101906105ac9190612cf4565b611270565b005b3480156105bf57600080fd5b506105da60048036038101906105d59190612f0a565b6112d2565b6040516105e791906134e1565b60405180910390f35b3480156105fc57600080fd5b5061061760048036038101906106129190612c69565b611424565b604051610624919061343d565b60405180910390f35b61064760048036038101906106429190612e9e565b6114b8565b6040516106549190613458565b60405180910390f35b34801561066957600080fd5b50610684600480360381019061067f9190612c40565b611719565b005b60007f80ac58cd000000000000000000000000000000000000000000000000000000007bffffffffffffffffffffffffffffffffffffffffffffffffffffffff1916827bffffffffffffffffffffffffffffffffffffffffffffffffffffffff1916148061075157507f5b5e139f000000000000000000000000000000000000000000000000000000007bffffffffffffffffffffffffffffffffffffffffffffffffffffffff1916827bffffffffffffffffffffffffffffffffffffffffffffffffffffffff1916145b80610761575061076082611811565b5b9050919050565b60606000805461077790613ada565b80601f01602080910402602001604051908101604052809291908181526020018280546107a390613ada565b80156107f05780601f106107c5576101008083540402835291602001916107f0565b820191906000526020600020905b8154815290600101906020018083116107d357829003601f168201915b5050505050905090565b60006108058261187b565b610844576040517f08c379a000000000000000000000000000000000000000000000000000000000815260040161083b906136a3565b60405180910390fd5b6004600083815260200190815260200160002060009054906101000a900473ffffffffffffffffffffffffffffffffffffffff169050919050565b600061088a82610b62565b90508073ffffffffffffffffffffffffffffffffffffffff168373ffffffffffffffffffffffffffffffffffffffff1614156108fb576040517f08c379a00000000000000000000000000000000000000000000000000000000081526004016108f290613763565b60405180910390fd5b8073ffffffffffffffffffffffffffffffffffffffff1661091a6118e7565b73ffffffffffffffffffffffffffffffffffffffff1614806109495750610948816109436118e7565b611424565b5b610988576040517f08c379a000000000000000000000000000000000000000000000000000000000815260040161097f906135e3565b60405180910390fd5b61099283836118ef565b505050565b6109a86109a26118e7565b826119a8565b6109e7576040517f08c379a00000000000000000000000000000000000000000000000000000000081526004016109de90613783565b60405180910390fd5b6109f2838383611a86565b505050565b600d60009054906101000a900473ffffffffffffffffffffffffffffffffffffffff1681565b6060610a28826112d2565b9050919050565b600c5481565b610a5083838360405180602001604052806000815250611270565b505050565b60108181548110610a6557600080fd5b9060005260206000209060070201600091509050806000015490806001015490806002015490806003015490806004015490806005015490806006018054610aac90613ada565b80601f0160208091040260200160405190810160405280929190818152602001828054610ad890613ada565b8015610b255780601f10610afa57610100808354040283529160200191610b25565b820191906000526020600020905b815481529060010190602001808311610b0857829003601f168201915b5050505050905087565b600e60009054906101000a900473ffffffffffffffffffffffffffffffffffffffff1681565b6000601080549050905090565b6000806002600084815260200190815260200160002060009054906101000a900473ffffffffffffffffffffffffffffffffffffffff169050600073ffffffffffffffffffffffffffffffffffffffff168173ffffffffffffffffffffffffffffffffffffffff161415610c0b576040517f08c379a0000000000000000000000000000000000000000000000000000000008152600401610c0290613623565b60405180910390fd5b80915050919050565b60008060008060008060108781548110610c57577f4e487b7100000000000000000000000000000000000000000000000000000000600052603260045260246000fd5b90600052602060002090600702016000015460108881548110610ca3577f4e487b7100000000000000000000000000000000000000000000000000000000600052603260045260246000fd5b90600052602060002090600702016002015460108981548110610cef577f4e487b7100000000000000000000000000000000000000000000000000000000600052603260045260246000fd5b90600052602060002090600702016001015460108a81548110610d3b577f4e487b7100000000000000000000000000000000000000000000000000000000600052603260045260246000fd5b90600052602060002090600702016003015460108b81548110610d87577f4e487b7100000000000000000000000000000000000000000000000000000000600052603260045260246000fd5b90600052602060002090600702016004015460108c81548110610dd3577f4e487b7100000000000000000000000000000000000000000000000000000000600052603260045260246000fd5b90600052602060002090600702016005015495509550955095509550955091939550919395565b60008073ffffffffffffffffffffffffffffffffffffffff168273ffffffffffffffffffffffffffffffffffffffff161415610e6b576040517f08c379a0000000000000000000000000000000000000000000000000000000008152600401610e6290613603565b60405180910390fd5b600360008373ffffffffffffffffffffffffffffffffffffffff1673ffffffffffffffffffffffffffffffffffffffff168152602001908152602001600020549050919050565b610eba6118e7565b73ffffffffffffffffffffffffffffffffffffffff16610ed8610f97565b73ffffffffffffffffffffffffffffffffffffffff1614610f2e576040517f08c379a0000000000000000000000000000000000000000000000000000000008152600401610f25906136c3565b60405180910390fd5b610f386000611ce2565b565b6000610f9060108381548110610f79577f4e487b7100000000000000000000000000000000000000000000000000000000600052603260045260246000fd5b906000526020600020906007020160050154611da8565b9050919050565b6000600760009054906101000a900473ffffffffffffffffffffffffffffffffffffffff16905090565b7f000000000000000000000000000000000000000000000000000000000000000073ffffffffffffffffffffffffffffffffffffffff163373ffffffffffffffffffffffffffffffffffffffff161461104f576040517f08c379a000000000000000000000000000000000000000000000000000000000815260040161104690613743565b60405180910390fd5b6110598282611e05565b5050565b60606001805461106c90613ada565b80601f016020809104026020016040519081016040528092919081815260200182805461109890613ada565b80156110e55780601f106110ba576101008083540402835291602001916110e5565b820191906000526020600020905b8154815290600101906020018083116110c857829003601f168201915b5050505050905090565b6110f76118e7565b73ffffffffffffffffffffffffffffffffffffffff168273ffffffffffffffffffffffffffffffffffffffff161415611165576040517f08c379a000000000000000000000000000000000000000000000000000000000815260040161115c90613583565b60405180910390fd5b80600560006111726118e7565b73ffffffffffffffffffffffffffffffffffffffff1673ffffffffffffffffffffffffffffffffffffffff16815260200190815260200160002060008473ffffffffffffffffffffffffffffffffffffffff1673ffffffffffffffffffffffffffffffffffffffff16815260200190815260200160002060006101000a81548160ff0219169083151502179055508173ffffffffffffffffffffffffffffffffffffffff1661121f6118e7565b73ffffffffffffffffffffffffffffffffffffffff167f17307eab39ab6107e8899845ad3d59bd9653f200f220920489ca2b5937696c3183604051611264919061343d565b60405180910390a35050565b61128161127b6118e7565b836119a8565b6112c0576040517f08c379a00000000000000000000000000000000000000000000000000000000081526004016112b790613783565b60405180910390fd5b6112cc84848484612123565b50505050565b60606112dd8261187b565b61131c576040517f08c379a000000000000000000000000000000000000000000000000000000000815260040161131390613683565b60405180910390fd5b600060066000848152602001908152602001600020805461133c90613ada565b80601f016020809104026020016040519081016040528092919081815260200182805461136890613ada565b80156113b55780601f1061138a576101008083540402835291602001916113b5565b820191906000526020600020905b81548152906001019060200180831161139857829003601f168201915b5050505050905060006113c661217f565b90506000815114156113dc57819250505061141f565b6000825111156114115780826040516020016113f9929190613374565b6040516020818303038152906040529250505061141f565b61141a84612196565b925050505b919050565b6000600560008473ffffffffffffffffffffffffffffffffffffffff1673ffffffffffffffffffffffffffffffffffffffff16815260200190815260200160002060008373ffffffffffffffffffffffffffffffffffffffff1673ffffffffffffffffffffffffffffffffffffffff16815260200190815260200160002060009054906101000a900460ff16905092915050565b6000670de0b6b3a7640000341015611505576040517f08c379a00000000000000000000000000000000000000000000000000000000081526004016114fc90613723565b60405180910390fd5b600b547f000000000000000000000000000000000000000000000000000000000000000073ffffffffffffffffffffffffffffffffffffffff166370a08231306040518263ffffffff1660e01b81526004016115619190613398565b60206040518083038186803b15801561157957600080fd5b505afa15801561158d573d6000803e3d6000fd5b505050506040513d601f19601f820116820180604052508101906115b19190612f33565b10156115f2576040517f08c379a00000000000000000000000000000000000000000000000000000000081526004016115e9906135a3565b60405180910390fd5b6000611602600a54600b5461223d565b90508360116000838152602001908152602001600020908051906020019061162b929190612a25565b50336012600083815260200190815260200160002060006101000a81548173ffffffffffffffffffffffffffffffffffffffff021916908373ffffffffffffffffffffffffffffffffffffffff160217905550826013600083815260200190815260200160002090805190602001906116a5929190612a25565b50600960009054906101000a900473ffffffffffffffffffffffffffffffffffffffff1673ffffffffffffffffffffffffffffffffffffffff166108fc349081150290604051600060405180830381858888f1935050505015801561170e573d6000803e3d6000fd5b508091505092915050565b6117216118e7565b73ffffffffffffffffffffffffffffffffffffffff1661173f610f97565b73ffffffffffffffffffffffffffffffffffffffff1614611795576040517f08c379a000000000000000000000000000000000000000000000000000000000815260040161178c906136c3565b60405180910390fd5b600073ffffffffffffffffffffffffffffffffffffffff168173ffffffffffffffffffffffffffffffffffffffff161415611805576040517f08c379a00000000000000000000000000000000000000000000000000000000081526004016117fc90613523565b60405180910390fd5b61180e81611ce2565b50565b60007f01ffc9a7000000000000000000000000000000000000000000000000000000007bffffffffffffffffffffffffffffffffffffffffffffffffffffffff1916827bffffffffffffffffffffffffffffffffffffffffffffffffffffffff1916149050919050565b60008073ffffffffffffffffffffffffffffffffffffffff166002600084815260200190815260200160002060009054906101000a900473ffffffffffffffffffffffffffffffffffffffff1673ffffffffffffffffffffffffffffffffffffffff1614159050919050565b600033905090565b816004600083815260200190815260200160002060006101000a81548173ffffffffffffffffffffffffffffffffffffffff021916908373ffffffffffffffffffffffffffffffffffffffff160217905550808273ffffffffffffffffffffffffffffffffffffffff1661196283610b62565b73ffffffffffffffffffffffffffffffffffffffff167f8c5be1e5ebec7d5bd14f71427d1e84f3dd0314c0f7b2291e5b200ac8c7c3b92560405160405180910390a45050565b60006119b38261187b565b6119f2576040517f08c379a00000000000000000000000000000000000000000000000000000000081526004016119e9906135c3565b60405180910390fd5b60006119fd83610b62565b90508073ffffffffffffffffffffffffffffffffffffffff168473ffffffffffffffffffffffffffffffffffffffff161480611a6c57508373ffffffffffffffffffffffffffffffffffffffff16611a54846107fa565b73ffffffffffffffffffffffffffffffffffffffff16145b80611a7d5750611a7c8185611424565b5b91505092915050565b8273ffffffffffffffffffffffffffffffffffffffff16611aa682610b62565b73ffffffffffffffffffffffffffffffffffffffff1614611afc576040517f08c379a0000000000000000000000000000000000000000000000000000000008152600401611af3906136e3565b60405180910390fd5b600073ffffffffffffffffffffffffffffffffffffffff168273ffffffffffffffffffffffffffffffffffffffff161415611b6c576040517f08c379a0000000000000000000000000000000000000000000000000000000008152600401611b6390613563565b60405180910390fd5b611b7783838361239f565b611b826000826118ef565b6001600360008573ffffffffffffffffffffffffffffffffffffffff1673ffffffffffffffffffffffffffffffffffffffff1681526020019081526020016000206000828254611bd291906139e6565b925050819055506001600360008473ffffffffffffffffffffffffffffffffffffffff1673ffffffffffffffffffffffffffffffffffffffff1681526020019081526020016000206000828254611c29919061395f565b92505081905550816002600083815260200190815260200160002060006101000a81548173ffffffffffffffffffffffffffffffffffffffff021916908373ffffffffffffffffffffffffffffffffffffffff160217905550808273ffffffffffffffffffffffffffffffffffffffff168473ffffffffffffffffffffffffffffffffffffffff167fddf252ad1be2c89b69c2b068fc378daa952ba7f163c4a11628f55a4df523b3ef60405160405180910390a4505050565b6000600760009054906101000a900473ffffffffffffffffffffffffffffffffffffffff16905081600760006101000a81548173ffffffffffffffffffffffffffffffffffffffff021916908373ffffffffffffffffffffffffffffffffffffffff1602179055508173ffffffffffffffffffffffffffffffffffffffff168173ffffffffffffffffffffffffffffffffffffffff167f8be0079c531659141344cd1fd0a4f28419497f9722a3daafe3b4186f6b6457e060405160405180910390a35050565b6000806002600184611dba919061395f565b611dc491906139b5565b90508291505b81811015611dff578091506002818285611de491906139b5565b611dee919061395f565b611df891906139b5565b9050611dca565b50919050565b6000601080549050905060006012606484611e209190613b9a565b611e2a9190613b9a565b905060006012606461271086611e409190613b9a565b611e4a91906139b5565b611e549190613b9a565b905060006012612710620f424087611e6c9190613b9a565b611e7691906139b5565b611e809190613b9a565b905060006012620f42406305f5e10088611e9a9190613b9a565b611ea491906139b5565b611eae9190613b9a565b9050600060126305f5e1006402540be40089611eca9190613b9a565b611ed491906139b5565b611ede9190613b9a565b9050600060106040518060e00160405280888152602001878152602001868152602001858152602001848152602001838152602001601160008d81526020019081526020016000208054611f3190613ada565b80601f0160208091040260200160405190810160405280929190818152602001828054611f5d90613ada565b8015611faa5780601f10611f7f57610100808354040283529160200191611faa565b820191906000526020600020905b815481529060010190602001808311611f8d57829003601f168201915b50505050508152509080600181540180825580915050600190039060005260206000209060070201600090919091909150600082015181600001556020820151816001015560408201518160020155606082015181600301556080820151816004015560a0820151816005015560c0820151816006019080519060200190612033929190612a25565b505050612073601260008b815260200190815260200160002060009054906101000a900473ffffffffffffffffffffffffffffffffffffffff16886123a4565b61211887601360008c8152602001908152602001600020805461209590613ada565b80601f01602080910402602001604051908101604052809291908181526020018280546120c190613ada565b801561210e5780601f106120e35761010080835404028352916020019161210e565b820191906000526020600020905b8154815290600101906020018083116120f157829003601f168201915b50505050506123c2565b505050505050505050565b61212e848484611a86565b61213a84848484612436565b612179576040517f08c379a000000000000000000000000000000000000000000000000000000000815260040161217090613503565b60405180910390fd5b50505050565b606060405180602001604052806000815250905090565b60606121a18261187b565b6121e0576040517f08c379a00000000000000000000000000000000000000000000000000000000081526004016121d790613703565b60405180910390fd5b60006121ea61217f565b9050600081511161220a5760405180602001604052806000815250612235565b80612214846125cd565b604051602001612225929190613374565b6040516020818303038152906040525b915050919050565b60007f000000000000000000000000000000000000000000000000000000000000000073ffffffffffffffffffffffffffffffffffffffff16634000aea07f0000000000000000000000000000000000000000000000000000000000000000848660006040516020016122b1929190613473565b6040516020818303038152906040526040518463ffffffff1660e01b81526004016122de939291906133ff565b602060405180830381600087803b1580156122f857600080fd5b505af115801561230c573d6000803e3d6000fd5b505050506040513d601f19601f820116820180604052508101906123309190612de7565b50600061235384600030600860008981526020019081526020016000205461277a565b905060016008600086815260200190815260200160002054612375919061395f565b600860008681526020019081526020016000208190555061239684826127b6565b91505092915050565b505050565b6123be8282604051806020016040528060008152506127e9565b5050565b6123cb8261187b565b61240a576040517f08c379a000000000000000000000000000000000000000000000000000000000815260040161240190613643565b60405180910390fd5b80600660008481526020019081526020016000209080519060200190612431929190612a25565b505050565b60006124578473ffffffffffffffffffffffffffffffffffffffff16612844565b156125c0578373ffffffffffffffffffffffffffffffffffffffff1663150b7a026124806118e7565b8786866040518563ffffffff1660e01b81526004016124a294939291906133b3565b602060405180830381600087803b1580156124bc57600080fd5b505af19250505080156124ed57506040513d601f19601f820116820180604052508101906124ea9190612e75565b60015b612570573d806000811461251d576040519150601f19603f3d011682016040523d82523d6000602084013e612522565b606091505b50600081511415612568576040517f08c379a000000000000000000000000000000000000000000000000000000000815260040161255f90613503565b60405180910390fd5b805181602001fd5b63150b7a0260e01b7bffffffffffffffffffffffffffffffffffffffffffffffffffffffff1916817bffffffffffffffffffffffffffffffffffffffffffffffffffffffff1916149150506125c5565b600190505b949350505050565b60606000821415612615576040518060400160405280600181526020017f30000000000000000000000000000000000000000000000000000000000000008152509050612775565b600082905060005b6000821461264757808061263090613b3d565b915050600a8261264091906139b5565b915061261d565b60008167ffffffffffffffff811115612689577f4e487b7100000000000000000000000000000000000000000000000000000000600052604160045260246000fd5b6040519080825280601f01601f1916602001820160405280156126bb5781602001600182028036833780820191505090505b5090505b6000851461276e576001826126d491906139e6565b9150600a856126e39190613b9a565b60306126ef919061395f565b60f81b81838151811061272b577f4e487b7100000000000000000000000000000000000000000000000000000000600052603260045260246000fd5b60200101907effffffffffffffffffffffffffffffffffffffffffffffffffffffffffffff1916908160001a905350600a8561276791906139b5565b94506126bf565b8093505050505b919050565b600084848484604051602001612793949392919061349c565b6040516020818303038152906040528051906020012060001c9050949350505050565b600082826040516020016127cb929190613348565b60405160208183030381529060405280519060200120905092915050565b6127f38383612857565b6128006000848484612436565b61283f576040517f08c379a000000000000000000000000000000000000000000000000000000000815260040161283690613503565b60405180910390fd5b505050565b600080823b905060008111915050919050565b600073ffffffffffffffffffffffffffffffffffffffff168273ffffffffffffffffffffffffffffffffffffffff1614156128c7576040517f08c379a00000000000000000000000000000000000000000000000000000000081526004016128be90613663565b60405180910390fd5b6128d08161187b565b15612910576040517f08c379a000000000000000000000000000000000000000000000000000000000815260040161290790613543565b60405180910390fd5b61291c6000838361239f565b6001600360008473ffffffffffffffffffffffffffffffffffffffff1673ffffffffffffffffffffffffffffffffffffffff168152602001908152602001600020600082825461296c919061395f565b92505081905550816002600083815260200190815260200160002060006101000a81548173ffffffffffffffffffffffffffffffffffffffff021916908373ffffffffffffffffffffffffffffffffffffffff160217905550808273ffffffffffffffffffffffffffffffffffffffff16600073ffffffffffffffffffffffffffffffffffffffff167fddf252ad1be2c89b69c2b068fc378daa952ba7f163c4a11628f55a4df523b3ef60405160405180910390a45050565b828054612a3190613ada565b90600052602060002090601f016020900481019282612a535760008555612a9a565b82601f10612a6c57805160ff1916838001178555612a9a565b82800160010185558215612a9a579182015b82811115612a99578251825591602001919060010190612a7e565b5b509050612aa79190612aab565b5090565b5b80821115612ac4576000816000905550600101612aac565b5090565b6000612adb612ad6846138ba565b613895565b905082815260208101848484011115612af357600080fd5b612afe848285613a98565b509392505050565b6000612b19612b14846138eb565b613895565b905082815260208101848484011115612b3157600080fd5b612b3c848285613a98565b509392505050565b600081359050612b538161422f565b92915050565b600081359050612b6881614246565b92915050565b600081519050612b7d81614246565b92915050565b600081359050612b928161425d565b92915050565b600081359050612ba781614274565b92915050565b600081519050612bbc81614274565b92915050565b600082601f830112612bd357600080fd5b8135612be3848260208601612ac8565b91505092915050565b600082601f830112612bfd57600080fd5b8135612c0d848260208601612b06565b91505092915050565b600081359050612c258161428b565b92915050565b600081519050612c3a8161428b565b92915050565b600060208284031215612c5257600080fd5b6000612c6084828501612b44565b91505092915050565b60008060408385031215612c7c57600080fd5b6000612c8a85828601612b44565b9250506020612c9b85828601612b44565b9150509250929050565b600080600060608486031215612cba57600080fd5b6000612cc886828701612b44565b9350506020612cd986828701612b44565b9250506040612cea86828701612c16565b9150509250925092565b60008060008060808587031215612d0a57600080fd5b6000612d1887828801612b44565b9450506020612d2987828801612b44565b9350506040612d3a87828801612c16565b925050606085013567ffffffffffffffff811115612d5757600080fd5b612d6387828801612bc2565b91505092959194509250565b60008060408385031215612d8257600080fd5b6000612d9085828601612b44565b9250506020612da185828601612b59565b9150509250929050565b60008060408385031215612dbe57600080fd5b6000612dcc85828601612b44565b9250506020612ddd85828601612c16565b9150509250929050565b600060208284031215612df957600080fd5b6000612e0784828501612b6e565b91505092915050565b60008060408385031215612e2357600080fd5b6000612e3185828601612b83565b9250506020612e4285828601612c16565b9150509250929050565b600060208284031215612e5e57600080fd5b6000612e6c84828501612b98565b91505092915050565b600060208284031215612e8757600080fd5b6000612e9584828501612bad565b91505092915050565b60008060408385031215612eb157600080fd5b600083013567ffffffffffffffff811115612ecb57600080fd5b612ed785828601612bec565b925050602083013567ffffffffffffffff811115612ef457600080fd5b612f0085828601612bec565b9150509250929050565b600060208284031215612f1c57600080fd5b6000612f2a84828501612c16565b91505092915050565b600060208284031215612f4557600080fd5b6000612f5384828501612c2b565b91505092915050565b612f6581613a1a565b82525050565b612f7481613a2c565b82525050565b612f8381613a38565b82525050565b612f9a612f9582613a38565b613b86565b82525050565b6000612fab8261391c565b612fb58185613932565b9350612fc5818560208601613aa7565b612fce81613c87565b840191505092915050565b6000612fe482613927565b612fee8185613943565b9350612ffe818560208601613aa7565b61300781613c87565b840191505092915050565b600061301d82613927565b6130278185613954565b9350613037818560208601613aa7565b80840191505092915050565b6000613050603283613943565b915061305b82613c98565b604082019050919050565b6000613073602683613943565b915061307e82613ce7565b604082019050919050565b6000613096601c83613943565b91506130a182613d36565b602082019050919050565b60006130b9602483613943565b91506130c482613d5f565b604082019050919050565b60006130dc601983613943565b91506130e782613dae565b602082019050919050565b60006130ff602b83613943565b915061310a82613dd7565b604082019050919050565b6000613122602c83613943565b915061312d82613e26565b604082019050919050565b6000613145603883613943565b915061315082613e75565b604082019050919050565b6000613168602a83613943565b915061317382613ec4565b604082019050919050565b600061318b602983613943565b915061319682613f13565b604082019050919050565b60006131ae602e83613943565b91506131b982613f62565b604082019050919050565b60006131d1602083613943565b91506131dc82613fb1565b602082019050919050565b60006131f4603183613943565b91506131ff82613fda565b604082019050919050565b6000613217602c83613943565b915061322282614029565b604082019050919050565b600061323a602083613943565b915061324582614078565b602082019050919050565b600061325d602983613943565b9150613268826140a1565b604082019050919050565b6000613280602f83613943565b915061328b826140f0565b604082019050919050565b60006132a3601483613943565b91506132ae8261413f565b602082019050919050565b60006132c6601f83613943565b91506132d182614168565b602082019050919050565b60006132e9602183613943565b91506132f482614191565b604082019050919050565b600061330c603183613943565b9150613317826141e0565b604082019050919050565b61332b81613a8e565b82525050565b61334261333d82613a8e565b613b90565b82525050565b60006133548285612f89565b6020820191506133648284613331565b6020820191508190509392505050565b60006133808285613012565b915061338c8284613012565b91508190509392505050565b60006020820190506133ad6000830184612f5c565b92915050565b60006080820190506133c86000830187612f5c565b6133d56020830186612f5c565b6133e26040830185613322565b81810360608301526133f48184612fa0565b905095945050505050565b60006060820190506134146000830186612f5c565b6134216020830185613322565b81810360408301526134338184612fa0565b9050949350505050565b60006020820190506134526000830184612f6b565b92915050565b600060208201905061346d6000830184612f7a565b92915050565b60006040820190506134886000830185612f7a565b6134956020830184613322565b9392505050565b60006080820190506134b16000830187612f7a565b6134be6020830186613322565b6134cb6040830185612f5c565b6134d86060830184613322565b95945050505050565b600060208201905081810360008301526134fb8184612fd9565b905092915050565b6000602082019050818103600083015261351c81613043565b9050919050565b6000602082019050818103600083015261353c81613066565b9050919050565b6000602082019050818103600083015261355c81613089565b9050919050565b6000602082019050818103600083015261357c816130ac565b9050919050565b6000602082019050818103600083015261359c816130cf565b9050919050565b600060208201905081810360008301526135bc816130f2565b9050919050565b600060208201905081810360008301526135dc81613115565b9050919050565b600060208201905081810360008301526135fc81613138565b9050919050565b6000602082019050818103600083015261361c8161315b565b9050919050565b6000602082019050818103600083015261363c8161317e565b9050919050565b6000602082019050818103600083015261365c816131a1565b9050919050565b6000602082019050818103600083015261367c816131c4565b9050919050565b6000602082019050818103600083015261369c816131e7565b9050919050565b600060208201905081810360008301526136bc8161320a565b9050919050565b600060208201905081810360008301526136dc8161322d565b9050919050565b600060208201905081810360008301526136fc81613250565b9050919050565b6000602082019050818103600083015261371c81613273565b9050919050565b6000602082019050818103600083015261373c81613296565b9050919050565b6000602082019050818103600083015261375c816132b9565b9050919050565b6000602082019050818103600083015261377c816132dc565b9050919050565b6000602082019050818103600083015261379c816132ff565b9050919050565b60006020820190506137b86000830184613322565b92915050565b600060c0820190506137d36000830189613322565b6137e06020830188613322565b6137ed6040830187613322565b6137fa6060830186613322565b6138076080830185613322565b61381460a0830184613322565b979650505050505050565b600060e082019050613834600083018a613322565b6138416020830189613322565b61384e6040830188613322565b61385b6060830187613322565b6138686080830186613322565b61387560a0830185613322565b81810360c08301526138878184612fd9565b905098975050505050505050565b600061389f6138b0565b90506138ab8282613b0c565b919050565b6000604051905090565b600067ffffffffffffffff8211156138d5576138d4613c58565b5b6138de82613c87565b9050602081019050919050565b600067ffffffffffffffff82111561390657613905613c58565b5b61390f82613c87565b9050602081019050919050565b600081519050919050565b600081519050919050565b600082825260208201905092915050565b600082825260208201905092915050565b600081905092915050565b600061396a82613a8e565b915061397583613a8e565b9250827fffffffffffffffffffffffffffffffffffffffffffffffffffffffffffffffff038211156139aa576139a9613bcb565b5b828201905092915050565b60006139c082613a8e565b91506139cb83613a8e565b9250826139db576139da613bfa565b5b828204905092915050565b60006139f182613a8e565b91506139fc83613a8e565b925082821015613a0f57613a0e613bcb565b5b828203905092915050565b6000613a2582613a6e565b9050919050565b60008115159050919050565b6000819050919050565b60007fffffffff0000000000000000000000000000000000000000000000000000000082169050919050565b600073ffffffffffffffffffffffffffffffffffffffff82169050919050565b6000819050919050565b82818337600083830152505050565b60005b83811015613ac5578082015181840152602081019050613aaa565b83811115613ad4576000848401525b50505050565b60006002820490506001821680613af257607f821691505b60208210811415613b0657613b05613c29565b5b50919050565b613b1582613c87565b810181811067ffffffffffffffff82111715613b3457613b33613c58565b5b80604052505050565b6000613b4882613a8e565b91507fffffffffffffffffffffffffffffffffffffffffffffffffffffffffffffffff821415613b7b57613b7a613bcb565b5b600182019050919050565b6000819050919050565b6000819050919050565b6000613ba582613a8e565b9150613bb083613a8e565b925082613bc057613bbf613bfa565b5b828206905092915050565b7f4e487b7100000000000000000000000000000000000000000000000000000000600052601160045260246000fd5b7f4e487b7100000000000000000000000000000000000000000000000000000000600052601260045260246000fd5b7f4e487b7100000000000000000000000000000000000000000000000000000000600052602260045260246000fd5b7f4e487b7100000000000000000000000000000000000000000000000000000000600052604160045260246000fd5b6000601f19601f8301169050919050565b7f4552433732313a207472616e7366657220746f206e6f6e20455243373231526560008201527f63656976657220696d706c656d656e7465720000000000000000000000000000602082015250565b7f4f776e61626c653a206e6577206f776e657220697320746865207a65726f206160008201527f6464726573730000000000000000000000000000000000000000000000000000602082015250565b7f4552433732313a20746f6b656e20616c7265616479206d696e74656400000000600082015250565b7f4552433732313a207472616e7366657220746f20746865207a65726f2061646460008201527f7265737300000000000000000000000000000000000000000000000000000000602082015250565b7f4552433732313a20617070726f766520746f2063616c6c657200000000000000600082015250565b7f4e6f7420656e6f756768204c494e4b202d2066696c6c20636f6e74726163742060008201527f7769746820666175636574000000000000000000000000000000000000000000602082015250565b7f4552433732313a206f70657261746f7220717565727920666f72206e6f6e657860008201527f697374656e7420746f6b656e0000000000000000000000000000000000000000602082015250565b7f4552433732313a20617070726f76652063616c6c6572206973206e6f74206f7760008201527f6e6572206e6f7220617070726f76656420666f7220616c6c0000000000000000602082015250565b7f4552433732313a2062616c616e636520717565727920666f7220746865207a6560008201527f726f206164647265737300000000000000000000000000000000000000000000602082015250565b7f4552433732313a206f776e657220717565727920666f72206e6f6e657869737460008201527f656e7420746f6b656e0000000000000000000000000000000000000000000000602082015250565b7f45524337323155524953746f726167653a2055524920736574206f66206e6f6e60008201527f6578697374656e7420746f6b656e000000000000000000000000000000000000602082015250565b7f4552433732313a206d696e7420746f20746865207a65726f2061646472657373600082015250565b7f45524337323155524953746f726167653a2055524920717565727920666f722060008201527f6e6f6e6578697374656e7420746f6b656e000000000000000000000000000000602082015250565b7f4552433732313a20617070726f76656420717565727920666f72206e6f6e657860008201527f697374656e7420746f6b656e0000000000000000000000000000000000000000602082015250565b7f4f776e61626c653a2063616c6c6572206973206e6f7420746865206f776e6572600082015250565b7f4552433732313a207472616e73666572206f6620746f6b656e2074686174206960008201527f73206e6f74206f776e0000000000000000000000000000000000000000000000602082015250565b7f4552433732314d657461646174613a2055524920717565727920666f72206e6f60008201527f6e6578697374656e7420746f6b656e0000000000000000000000000000000000602082015250565b7f696e73756666696369656e742062616c616e6365000000000000000000000000600082015250565b7f4f6e6c7920565246436f6f7264696e61746f722063616e2066756c66696c6c00600082015250565b7f4552433732313a20617070726f76616c20746f2063757272656e74206f776e6560008201527f7200000000000000000000000000000000000000000000000000000000000000602082015250565b7f4552433732313a207472616e736665722063616c6c6572206973206e6f74206f60008201527f776e6572206e6f7220617070726f766564000000000000000000000000000000602082015250565b61423881613a1a565b811461424357600080fd5b50565b61424f81613a2c565b811461425a57600080fd5b50565b61426681613a38565b811461427157600080fd5b50565b61427d81613a42565b811461428857600080fd5b50565b61429481613a8e565b811461429f57600080fd5b5056fea2646970667358221220ac4a3c5a8b15ad6ac4e3375f3b7ea6060586bac03fc4f27e1c736a44affb261c64736f6c63430008030033",
  "linkReferences": {},
  "deployedLinkReferences": {}
}