{
  "_format": "hh-sol-artifact-1",
  "contractName": "PreSale",
  "sourceName": "contracts/PreSale.sol",
  "abi": [
    {
      "inputs": [],
      "name": "presale",
      "outputs": [],
      "stateMutability": "payable",
      "type": "function"
    },
    {
      "inputs": [],
      "name": "tokenPerCore",
      "outputs": [
        {
          "internalType": "uint256",
          "name": "",
          "type": "uint256"
        }
      ],
      "stateMutability": "view",
      "type": "function"
    }
  ],
  "bytecode": "0x608060405273caac892428982b4837b0e84898d8a69887978bb76000806101000a81548173ffffffffffffffffffffffffffffffffffffffff021916908373ffffffffffffffffffffffffffffffffffffffff16021790555073086d40a14c85ba5dd4dae93ffb38c582f1776650600160006101000a81548173ffffffffffffffffffffffffffffffffffffffff021916908373ffffffffffffffffffffffffffffffffffffffff1602179055503480156100b957600080fd5b506105e5806100c96000396000f3fe6080604052600436106100295760003560e01c8063078320691461002e578063fdea8e0b14610059575b600080fd5b34801561003a57600080fd5b50610043610063565b6040516100509190610432565b60405180910390f35b61006161006a565b005b6207a12081565b60006207a1203461007b919061045e565b90506000600160009054906101000a900473ffffffffffffffffffffffffffffffffffffffff1673ffffffffffffffffffffffffffffffffffffffff166370a08231306040518263ffffffff1660e01b81526004016100da91906103ae565b60206040518083038186803b1580156100f257600080fd5b505afa158015610106573d6000803e3d6000fd5b505050506040513d601f19601f8201168201806040525081019061012a9190610321565b90508181101561016f576040517f08c379a0000000000000000000000000000000000000000000000000000000008152600401610166906103f2565b60405180910390fd5b6000600160009054906101000a900473ffffffffffffffffffffffffffffffffffffffff1673ffffffffffffffffffffffffffffffffffffffff1663a9059cbb33856040518363ffffffff1660e01b81526004016101ce9291906103c9565b602060405180830381600087803b1580156101e857600080fd5b505af11580156101fc573d6000803e3d6000fd5b505050506040513d601f19601f8201168201806040525081019061022091906102f8565b905080610262576040517f08c379a000000000000000000000000000000000000000000000000000000000815260040161025990610412565b60405180910390fd5b60008054906101000a900473ffffffffffffffffffffffffffffffffffffffff1673ffffffffffffffffffffffffffffffffffffffff166108fc349081150290604051600060405180830381858888f193505050501580156102c8573d6000803e3d6000fd5b50505050565b6000815190506102dd81610581565b92915050565b6000815190506102f281610598565b92915050565b60006020828403121561030a57600080fd5b6000610318848285016102ce565b91505092915050565b60006020828403121561033357600080fd5b6000610341848285016102e3565b91505092915050565b610353816104b8565b82525050565b600061036660168361044d565b91506103718261052f565b602082019050919050565b600061038960208361044d565b915061039482610558565b602082019050919050565b6103a8816104f6565b82525050565b60006020820190506103c3600083018461034a565b92915050565b60006040820190506103de600083018561034a565b6103eb602083018461039f565b9392505050565b6000602082019050818103600083015261040b81610359565b9050919050565b6000602082019050818103600083015261042b8161037c565b9050919050565b6000602082019050610447600083018461039f565b92915050565b600082825260208201905092915050565b6000610469826104f6565b9150610474836104f6565b9250817fffffffffffffffffffffffffffffffffffffffffffffffffffffffffffffffff04831182151516156104ad576104ac610500565b5b828202905092915050565b60006104c3826104d6565b9050919050565b60008115159050919050565b600073ffffffffffffffffffffffffffffffffffffffff82169050919050565b6000819050919050565b7f4e487b7100000000000000000000000000000000000000000000000000000000600052601160045260246000fd5b7f41505a2042616c616e6365204e6f7420456e6f75676800000000000000000000600082015250565b7f4661696c656420746f207472616e7366657220746f6b656e20746f2075736572600082015250565b61058a816104ca565b811461059557600080fd5b50565b6105a1816104f6565b81146105ac57600080fd5b5056fea2646970667358221220bfb4f6f87dbcdc983c0605dcdd44fe007908cce227c7d50f2f753009065a231d64736f6c63430008030033",
  "linkReferences": {},
  "deployedLinkReferences": {}
}